{
  "_format": "hh-sol-artifact-1",
  "contractName": "App",
  "sourceName": "@openzeppelin/upgrades/contracts/application/App.sol",
  "abi": [
    {
      "inputs": [],
      "payable": false,
      "stateMutability": "nonpayable",
      "type": "constructor"
    },
    {
      "anonymous": false,
      "inputs": [
        {
          "indexed": true,
          "internalType": "address",
          "name": "previousOwner",
          "type": "address"
        },
        {
          "indexed": true,
          "internalType": "address",
          "name": "newOwner",
          "type": "address"
        }
      ],
      "name": "OwnershipTransferred",
      "type": "event"
    },
    {
      "anonymous": false,
      "inputs": [
        {
          "indexed": false,
          "internalType": "string",
          "name": "providerName",
          "type": "string"
        },
        {
          "indexed": false,
          "internalType": "address",
          "name": "package",
          "type": "address"
        },
        {
          "indexed": false,
          "internalType": "uint64[3]",
          "name": "version",
          "type": "uint64[3]"
        }
      ],
      "name": "PackageChanged",
      "type": "event"
    },
    {
      "anonymous": false,
      "inputs": [
        {
          "indexed": false,
          "internalType": "address",
          "name": "proxy",
          "type": "address"
        }
      ],
      "name": "ProxyCreated",
      "type": "event"
    },
    {
      "constant": false,
      "inputs": [
        {
          "internalType": "string",
          "name": "packageName",
          "type": "string"
        },
        {
          "internalType": "string",
          "name": "contractName",
          "type": "string"
        },
        {
          "internalType": "address",
          "name": "admin",
          "type": "address"
        },
        {
          "internalType": "bytes",
          "name": "data",
          "type": "bytes"
        }
      ],
      "name": "create",
      "outputs": [
        {
          "internalType": "contract AdminUpgradeabilityProxy",
          "name": "",
          "type": "address"
        }
      ],
      "payable": true,
      "stateMutability": "payable",
      "type": "function"
    },
    {
      "constant": true,
      "inputs": [
        {
          "internalType": "string",
          "name": "packageName",
          "type": "string"
        },
        {
          "internalType": "string",
          "name": "contractName",
          "type": "string"
        }
      ],
      "name": "getImplementation",
      "outputs": [
        {
          "internalType": "address",
          "name": "",
          "type": "address"
        }
      ],
      "payable": false,
      "stateMutability": "view",
      "type": "function"
    },
    {
      "constant": true,
      "inputs": [
        {
          "internalType": "string",
          "name": "packageName",
          "type": "string"
        }
      ],
      "name": "getPackage",
      "outputs": [
        {
          "internalType": "contract Package",
          "name": "",
          "type": "address"
        },
        {
          "internalType": "uint64[3]",
          "name": "",
          "type": "uint64[3]"
        }
      ],
      "payable": false,
      "stateMutability": "view",
      "type": "function"
    },
    {
      "constant": true,
      "inputs": [
        {
          "internalType": "string",
          "name": "packageName",
          "type": "string"
        }
      ],
      "name": "getProvider",
      "outputs": [
        {
          "internalType": "contract ImplementationProvider",
          "name": "provider",
          "type": "address"
        }
      ],
      "payable": false,
      "stateMutability": "view",
      "type": "function"
    },
    {
      "constant": true,
      "inputs": [],
      "name": "isOwner",
      "outputs": [
        {
          "internalType": "bool",
          "name": "",
          "type": "bool"
        }
      ],
      "payable": false,
      "stateMutability": "view",
      "type": "function"
    },
    {
      "constant": true,
      "inputs": [],
      "name": "owner",
      "outputs": [
        {
          "internalType": "address",
          "name": "",
          "type": "address"
        }
      ],
      "payable": false,
      "stateMutability": "view",
      "type": "function"
    },
    {
      "constant": false,
      "inputs": [],
      "name": "renounceOwnership",
      "outputs": [],
      "payable": false,
      "stateMutability": "nonpayable",
      "type": "function"
    },
    {
      "constant": false,
      "inputs": [
        {
          "internalType": "string",
          "name": "packageName",
          "type": "string"
        },
        {
          "internalType": "contract Package",
          "name": "package",
          "type": "address"
        },
        {
          "internalType": "uint64[3]",
          "name": "version",
          "type": "uint64[3]"
        }
      ],
      "name": "setPackage",
      "outputs": [],
      "payable": false,
      "stateMutability": "nonpayable",
      "type": "function"
    },
    {
      "constant": false,
      "inputs": [
        {
          "internalType": "address",
          "name": "newOwner",
          "type": "address"
        }
      ],
      "name": "transferOwnership",
      "outputs": [],
      "payable": false,
      "stateMutability": "nonpayable",
      "type": "function"
    },
    {
      "constant": false,
      "inputs": [
        {
          "internalType": "string",
          "name": "packageName",
          "type": "string"
        }
      ],
      "name": "unsetPackage",
      "outputs": [],
      "payable": false,
      "stateMutability": "nonpayable",
      "type": "function"
    }
  ],
  "bytecode": "0x608060405234801561001057600080fd5b50336000806101000a81548173ffffffffffffffffffffffffffffffffffffffff021916908373ffffffffffffffffffffffffffffffffffffffff1602179055506000809054906101000a900473ffffffffffffffffffffffffffffffffffffffff1673ffffffffffffffffffffffffffffffffffffffff16600073ffffffffffffffffffffffffffffffffffffffff167f8be0079c531659141344cd1fd0a4f28419497f9722a3daafe3b4186f6b6457e060405160405180910390a36126f6806100dc6000396000f3fe6080604052600436106200009e5760003560e01c80638da5cb5b11620000615780638da5cb5b14620005e55780638f32d59b146200063f578063ad358d991462000671578063cd3e318a1462000740578063f2fde38b1462000995576200009e565b806327a0d66914620000a357806350cadc85146200024c578063715018a6146200035b57806371eb64cc146200037557806387c6048314620004a5575b600080fd5b348015620000b057600080fd5b506200020a60048036036040811015620000c957600080fd5b8101908080359060200190640100000000811115620000e757600080fd5b820183602082011115620000fa57600080fd5b803590602001918460018302840111640100000000831117156200011d57600080fd5b91908080601f016020809104026020016040519081016040528093929190818152602001838380828437600081840152601f19601f820116905080830192505050505050509192919290803590602001906401000000008111156200018157600080fd5b8201836020820111156200019457600080fd5b80359060200191846001830284011164010000000083111715620001b757600080fd5b91908080601f016020809104026020016040519081016040528093929190818152602001838380828437600081840152601f19601f820116905080830192505050505050509192919290505050620009ea565b604051808273ffffffffffffffffffffffffffffffffffffffff1673ffffffffffffffffffffffffffffffffffffffff16815260200191505060405180910390f35b3480156200025957600080fd5b5062000319600480360360208110156200027257600080fd5b81019080803590602001906401000000008111156200029057600080fd5b820183602082011115620002a357600080fd5b80359060200191846001830284011164010000000083111715620002c657600080fd5b91908080601f016020809104026020016040519081016040528093929190818152602001838380828437600081840152601f19601f82011690508083019250505050505050919291929050505062000b3c565b604051808273ffffffffffffffffffffffffffffffffffffffff1673ffffffffffffffffffffffffffffffffffffffff16815260200191505060405180910390f35b3480156200036857600080fd5b506200037362000d26565b005b3480156200038257600080fd5b50620004a3600480360360a08110156200039b57600080fd5b8101908080359060200190640100000000811115620003b957600080fd5b820183602082011115620003cc57600080fd5b80359060200191846001830284011164010000000083111715620003ef57600080fd5b91908080601f016020809104026020016040519081016040528093929190818152602001838380828437600081840152601f19601f820116905080830192505050505050509192919290803573ffffffffffffffffffffffffffffffffffffffff16906020019092919080606001906003806020026040519081016040528092919082600360200280828437600081840152601f19601f820116905080830192505050505050919291929050505062000df9565b005b348015620004b257600080fd5b506200057260048036036020811015620004cb57600080fd5b8101908080359060200190640100000000811115620004e957600080fd5b820183602082011115620004fc57600080fd5b803590602001918460018302840111640100000000831117156200051f57600080fd5b91908080601f016020809104026020016040519081016040528093929190818152602001838380828437600081840152601f19601f82011690508083019250505050505050919291929050505062001121565b604051808373ffffffffffffffffffffffffffffffffffffffff1673ffffffffffffffffffffffffffffffffffffffff16815260200182600360200280838360005b83811015620005d1578082015181840152602081019050620005b4565b505050509050019250505060405180910390f35b348015620005f257600080fd5b50620005fd62001244565b604051808273ffffffffffffffffffffffffffffffffffffffff1673ffffffffffffffffffffffffffffffffffffffff16815260200191505060405180910390f35b3480156200064c57600080fd5b50620006576200126d565b604051808215151515815260200191505060405180910390f35b3480156200067e57600080fd5b506200073e600480360360208110156200069757600080fd5b8101908080359060200190640100000000811115620006b557600080fd5b820183602082011115620006c857600080fd5b80359060200191846001830284011164010000000083111715620006eb57600080fd5b91908080601f016020809104026020016040519081016040528093929190818152602001838380828437600081840152601f19601f820116905080830192505050505050509192919290505050620012c4565b005b62000953600480360360808110156200075857600080fd5b81019080803590602001906401000000008111156200077657600080fd5b8201836020820111156200078957600080fd5b80359060200191846001830284011164010000000083111715620007ac57600080fd5b91908080601f016020809104026020016040519081016040528093929190818152602001838380828437600081840152601f19601f820116905080830192505050505050509192919290803590602001906401000000008111156200081057600080fd5b8201836020820111156200082357600080fd5b803590602001918460018302840111640100000000831117156200084657600080fd5b91908080601f016020809104026020016040519081016040528093929190818152602001838380828437600081840152601f19601f820116905080830192505050505050509192919290803573ffffffffffffffffffffffffffffffffffffffff16906020019092919080359060200190640100000000811115620008ca57600080fd5b820183602082011115620008dd57600080fd5b803590602001918460018302840111640100000000831117156200090057600080fd5b91908080601f016020809104026020016040519081016040528093929190818152602001838380828437600081840152601f19601f82011690508083019250505050505050919291929050505062001613565b604051808273ffffffffffffffffffffffffffffffffffffffff1673ffffffffffffffffffffffffffffffffffffffff16815260200191505060405180910390f35b348015620009a257600080fd5b50620009e860048036036020811015620009bb57600080fd5b81019080803573ffffffffffffffffffffffffffffffffffffffff169060200190929190505050620017a0565b005b600080620009f88462000b3c565b9050600073ffffffffffffffffffffffffffffffffffffffff168173ffffffffffffffffffffffffffffffffffffffff16141562000a3b57600091505062000b36565b8073ffffffffffffffffffffffffffffffffffffffff16636b683896846040518263ffffffff1660e01b81526004018080602001828103825283818151815260200191508051906020019080838360005b8381101562000aa957808201518184015260208101905062000a8c565b50505050905090810190601f16801562000ad75780820380516001836020036101000a031916815260200191505b509250505060206040518083038186803b15801562000af557600080fd5b505afa15801562000b0a573d6000803e3d6000fd5b505050506040513d602081101562000b2157600080fd5b81019080805190602001909291905050509150505b92915050565b6000806001836040518082805190602001908083835b6020831062000b77578051825260208201915060208101905060208303925062000b52565b6001836020036101000a03801982511681845116808217855250505050505090500191505090815260200160405180910390209050600073ffffffffffffffffffffffffffffffffffffffff168160000160009054906101000a900473ffffffffffffffffffffffffffffffffffffffff1673ffffffffffffffffffffffffffffffffffffffff16141562000c1157600091505062000d21565b8060000160009054906101000a900473ffffffffffffffffffffffffffffffffffffffff1673ffffffffffffffffffffffffffffffffffffffff16631df40eaa826001016040518263ffffffff1660e01b815260040180826003801562000cc2576020028201916000905b82829054906101000a900467ffffffffffffffff1667ffffffffffffffff168152602001906008019060208260070104928301926001038202915080841162000c7c5790505b505091505060206040518083038186803b15801562000ce057600080fd5b505afa15801562000cf5573d6000803e3d6000fd5b505050506040513d602081101562000d0c57600080fd5b81019080805190602001909291905050509150505b919050565b62000d306200126d565b62000d3a57600080fd5b600073ffffffffffffffffffffffffffffffffffffffff166000809054906101000a900473ffffffffffffffffffffffffffffffffffffffff1673ffffffffffffffffffffffffffffffffffffffff167f8be0079c531659141344cd1fd0a4f28419497f9722a3daafe3b4186f6b6457e060405160405180910390a360008060006101000a81548173ffffffffffffffffffffffffffffffffffffffff021916908373ffffffffffffffffffffffffffffffffffffffff160217905550565b62000e036200126d565b62000e0d57600080fd5b8173ffffffffffffffffffffffffffffffffffffffff166335ce4016826040518263ffffffff1660e01b81526004018082600360200280838360005b8381101562000e6657808201518184015260208101905062000e49565b5050505090500191505060206040518083038186803b15801562000e8957600080fd5b505afa15801562000e9e573d6000803e3d6000fd5b505050506040513d602081101562000eb557600080fd5b810190808051906020019092919050505062000f1d576040517f08c379a000000000000000000000000000000000000000000000000000000000815260040180806020018281038252603d81526020018062002685603d913960400191505060405180910390fd5b60405180604001604052808373ffffffffffffffffffffffffffffffffffffffff168152602001828152506001846040518082805190602001908083835b6020831062000f80578051825260208201915060208101905060208303925062000f5b565b6001836020036101000a038019825116818451168082178552505050505050905001915050908152602001604051809103902060008201518160000160006101000a81548173ffffffffffffffffffffffffffffffffffffffff021916908373ffffffffffffffffffffffffffffffffffffffff16021790555060208201518160010190600362001013929190620018bb565b509050507f4ca1964bc3cd347906bc558f77fdd636486951cf12238150178be72a4fbb6fab83838360405180806020018473ffffffffffffffffffffffffffffffffffffffff1673ffffffffffffffffffffffffffffffffffffffff16815260200183600360200280838360005b838110156200109e57808201518184015260208101905062001081565b50505050905001828103825285818151815260200191508051906020019080838360005b83811015620010df578082015181840152602081019050620010c2565b50505050905090810190601f1680156200110d5780820380516001836020036101000a031916815260200191505b5094505050505060405180910390a1505050565b60006200112d62001970565b60006001846040518082805190602001908083835b6020831062001167578051825260208201915060208101905060208303925062001142565b6001836020036101000a038019825116818451168082178552505050505050905001915050908152602001604051809103902090508060000160009054906101000a900473ffffffffffffffffffffffffffffffffffffffff16816001018060038060200260405190810160405280929190826003801562001233576020028201916000905b82829054906101000a900467ffffffffffffffff1667ffffffffffffffff1681526020019060080190602082600701049283019260010382029150808411620011ed5790505b505050505090509250925050915091565b60008060009054906101000a900473ffffffffffffffffffffffffffffffffffffffff16905090565b60008060009054906101000a900473ffffffffffffffffffffffffffffffffffffffff1673ffffffffffffffffffffffffffffffffffffffff163373ffffffffffffffffffffffffffffffffffffffff1614905090565b620012ce6200126d565b620012d857600080fd5b600073ffffffffffffffffffffffffffffffffffffffff166001826040518082805190602001908083835b6020831062001328578051825260208201915060208101905060208303925062001303565b6001836020036101000a038019825116818451168082178552505050505050905001915050908152602001604051809103902060000160009054906101000a900473ffffffffffffffffffffffffffffffffffffffff1673ffffffffffffffffffffffffffffffffffffffff1614156200140a576040517f08c379a000000000000000000000000000000000000000000000000000000000815260040180806020018281038252601a8152602001807f5061636b61676520746f20756e736574206e6f7420666f756e6400000000000081525060200191505060405180910390fd5b6001816040518082805190602001908083835b602083106200144257805182526020820191506020810190506020830392506200141d565b6001836020036101000a0380198251168184511680821785525050505050509050019150509081526020016040518091039020600080820160006101000a81549073ffffffffffffffffffffffffffffffffffffffff0219169055600182016000620014af919062001992565b50507f4ca1964bc3cd347906bc558f77fdd636486951cf12238150178be72a4fbb6fab8160006040518060600160405280600067ffffffffffffffff1667ffffffffffffffff168152602001600067ffffffffffffffff1667ffffffffffffffff168152602001600067ffffffffffffffff1667ffffffffffffffff1681525060405180806020018473ffffffffffffffffffffffffffffffffffffffff1673ffffffffffffffffffffffffffffffffffffffff16815260200183600360200280838360005b838110156200159257808201518184015260208101905062001575565b50505050905001828103825285818151815260200191508051906020019080838360005b83811015620015d3578082015181840152602081019050620015b6565b50505050905090810190601f168015620016015780820380516001836020036101000a031916815260200191505b5094505050505060405180910390a150565b600080620016228686620009ea565b9050600034828686604051620016389062001999565b808473ffffffffffffffffffffffffffffffffffffffff1673ffffffffffffffffffffffffffffffffffffffff1681526020018373ffffffffffffffffffffffffffffffffffffffff1673ffffffffffffffffffffffffffffffffffffffff16815260200180602001828103825283818151815260200191508051906020019080838360005b83811015620016db578082015181840152602081019050620016be565b50505050905090810190601f168015620017095780820380516001836020036101000a031916815260200191505b509450505050506040518091039082f0801580156200172c573d6000803e3d6000fd5b50905090507efffc2da0b561cae30d9826d37709e9421c4725faebc226cbbb7ef5fc5e734981604051808273ffffffffffffffffffffffffffffffffffffffff1673ffffffffffffffffffffffffffffffffffffffff16815260200191505060405180910390a18092505050949350505050565b620017aa6200126d565b620017b457600080fd5b620017bf81620017c2565b50565b600073ffffffffffffffffffffffffffffffffffffffff168173ffffffffffffffffffffffffffffffffffffffff161415620017fd57600080fd5b8073ffffffffffffffffffffffffffffffffffffffff166000809054906101000a900473ffffffffffffffffffffffffffffffffffffffff1673ffffffffffffffffffffffffffffffffffffffff167f8be0079c531659141344cd1fd0a4f28419497f9722a3daafe3b4186f6b6457e060405160405180910390a3806000806101000a81548173ffffffffffffffffffffffffffffffffffffffff021916908373ffffffffffffffffffffffffffffffffffffffff16021790555050565b82600380016004900481019282156200195d5791602002820160005b838211156200192557835183826101000a81548167ffffffffffffffff021916908367ffffffffffffffff1602179055509260200192600801602081600701049283019260010302620018d7565b80156200195b5782816101000a81549067ffffffffffffffff021916905560080160208160070104928301926001030262001925565b505b5090506200196c9190620019a7565b5090565b6040518060600160405280600390602082028038833980820191505090505090565b5060009055565b610ca380620019e283390190565b620019de91905b80821115620019da57600081816101000a81549067ffffffffffffffff021916905550600101620019ae565b5090565b9056fe6080604052604051610ca3380380610ca38339818101604052606081101561002657600080fd5b8101908080519060200190929190805190602001909291908051604051939291908464010000000082111561005a57600080fd5b8382019150602082018581111561007057600080fd5b825186600182028301116401000000008211171561008d57600080fd5b8083526020830192505050908051906020019080838360005b838110156100c15780820151818401526020810190506100a6565b50505050905090810190601f1680156100ee5780820380516001836020036101000a031916815260200191505b506040525050508281600160405180807f656970313936372e70726f78792e696d706c656d656e746174696f6e00000000815250601c019050604051809103902060001c0360001b7f360894a13ba1a3210667c828492db98dca3e2076cc3735a920a3ca505d382bbc60001b1461016157fe5b610170826102bf60201b60201c565b60008151111561023c5760008273ffffffffffffffffffffffffffffffffffffffff16826040518082805190602001908083835b602083106101c757805182526020820191506020810190506020830392506101a4565b6001836020036101000a038019825116818451168082178552505050505050905001915050600060405180830381855af49150503d8060008114610227576040519150601f19603f3d011682016040523d82523d6000602084013e61022c565b606091505b505090508061023a57600080fd5b505b5050600160405180807f656970313936372e70726f78792e61646d696e000000000000000000000000008152506013019050604051809103902060001c0360001b7fb53127684a568b3173ae13b9f8a6016e243e63b6e8ee1178d6a717850b5d610360001b146102a857fe5b6102b78261035660201b60201c565b505050610398565b6102d28161038560201b6107d61760201c565b610327576040517f08c379a000000000000000000000000000000000000000000000000000000000815260040180806020018281038252603b815260200180610c68603b913960400191505060405180910390fd5b60007f360894a13ba1a3210667c828492db98dca3e2076cc3735a920a3ca505d382bbc60001b90508181555050565b60007fb53127684a568b3173ae13b9f8a6016e243e63b6e8ee1178d6a717850b5d610360001b90508181555050565b600080823b905060008111915050919050565b6108c1806103a76000396000f3fe60806040526004361061004a5760003560e01c80633659cfe6146100545780634f1ef286146100a55780635c60da1b1461013e5780638f28397014610195578063f851a440146101e6575b61005261023d565b005b34801561006057600080fd5b506100a36004803603602081101561007757600080fd5b81019080803573ffffffffffffffffffffffffffffffffffffffff169060200190929190505050610257565b005b61013c600480360360408110156100bb57600080fd5b81019080803573ffffffffffffffffffffffffffffffffffffffff169060200190929190803590602001906401000000008111156100f857600080fd5b82018360208201111561010a57600080fd5b8035906020019184600183028401116401000000008311171561012c57600080fd5b90919293919293905050506102ac565b005b34801561014a57600080fd5b50610153610382565b604051808273ffffffffffffffffffffffffffffffffffffffff1673ffffffffffffffffffffffffffffffffffffffff16815260200191505060405180910390f35b3480156101a157600080fd5b506101e4600480360360208110156101b857600080fd5b81019080803573ffffffffffffffffffffffffffffffffffffffff1690602001909291905050506103da565b005b3480156101f257600080fd5b506101fb610553565b604051808273ffffffffffffffffffffffffffffffffffffffff1673ffffffffffffffffffffffffffffffffffffffff16815260200191505060405180910390f35b6102456105ab565b610255610250610641565b610672565b565b61025f610698565b73ffffffffffffffffffffffffffffffffffffffff163373ffffffffffffffffffffffffffffffffffffffff1614156102a05761029b816106c9565b6102a9565b6102a861023d565b5b50565b6102b4610698565b73ffffffffffffffffffffffffffffffffffffffff163373ffffffffffffffffffffffffffffffffffffffff161415610374576102f0836106c9565b60008373ffffffffffffffffffffffffffffffffffffffff168383604051808383808284378083019250505092505050600060405180830381855af49150503d806000811461035b576040519150601f19603f3d011682016040523d82523d6000602084013e610360565b606091505b505090508061036e57600080fd5b5061037d565b61037c61023d565b5b505050565b600061038c610698565b73ffffffffffffffffffffffffffffffffffffffff163373ffffffffffffffffffffffffffffffffffffffff1614156103ce576103c7610641565b90506103d7565b6103d661023d565b5b90565b6103e2610698565b73ffffffffffffffffffffffffffffffffffffffff163373ffffffffffffffffffffffffffffffffffffffff16141561054757600073ffffffffffffffffffffffffffffffffffffffff168173ffffffffffffffffffffffffffffffffffffffff16141561049b576040517f08c379a000000000000000000000000000000000000000000000000000000000815260040180806020018281038252603681526020018061081c6036913960400191505060405180910390fd5b7f7e644d79422f17c01e4894b5f4f588d331ebfa28653d42ae832dc59e38c9798f6104c4610698565b82604051808373ffffffffffffffffffffffffffffffffffffffff1673ffffffffffffffffffffffffffffffffffffffff1681526020018273ffffffffffffffffffffffffffffffffffffffff1673ffffffffffffffffffffffffffffffffffffffff1681526020019250505060405180910390a161054281610718565b610550565b61054f61023d565b5b50565b600061055d610698565b73ffffffffffffffffffffffffffffffffffffffff163373ffffffffffffffffffffffffffffffffffffffff16141561059f57610598610698565b90506105a8565b6105a761023d565b5b90565b6105b3610698565b73ffffffffffffffffffffffffffffffffffffffff163373ffffffffffffffffffffffffffffffffffffffff161415610637576040517f08c379a00000000000000000000000000000000000000000000000000000000081526004018080602001828103825260328152602001806107ea6032913960400191505060405180910390fd5b61063f610747565b565b6000807f360894a13ba1a3210667c828492db98dca3e2076cc3735a920a3ca505d382bbc60001b9050805491505090565b3660008037600080366000845af43d6000803e8060008114610693573d6000f35b3d6000fd5b6000807fb53127684a568b3173ae13b9f8a6016e243e63b6e8ee1178d6a717850b5d610360001b9050805491505090565b6106d281610749565b8073ffffffffffffffffffffffffffffffffffffffff167fbc7cd75a20ee27fd9adebab32041f755214dbc6bffa90cc0225b39da2e5c2d3b60405160405180910390a250565b60007fb53127684a568b3173ae13b9f8a6016e243e63b6e8ee1178d6a717850b5d610360001b90508181555050565b565b610752816107d6565b6107a7576040517f08c379a000000000000000000000000000000000000000000000000000000000815260040180806020018281038252603b815260200180610852603b913960400191505060405180910390fd5b60007f360894a13ba1a3210667c828492db98dca3e2076cc3735a920a3ca505d382bbc60001b90508181555050565b600080823b90506000811191505091905056fe43616e6e6f742063616c6c2066616c6c6261636b2066756e6374696f6e2066726f6d207468652070726f78792061646d696e43616e6e6f74206368616e6765207468652061646d696e206f6620612070726f787920746f20746865207a65726f206164647265737343616e6e6f742073657420612070726f787920696d706c656d656e746174696f6e20746f2061206e6f6e2d636f6e74726163742061646472657373a265627a7a7231582040f39507d1d70a434f94e885e312b3dfa1ac062eaa1c7bb3656b393f48897e6364736f6c6343000510003243616e6e6f742073657420612070726f787920696d706c656d656e746174696f6e20746f2061206e6f6e2d636f6e74726163742061646472657373546865207265717565737465642076657273696f6e206d757374206265207265676973746572656420696e2074686520676976656e207061636b616765a265627a7a723158203cbbfc65e2765d7115182789c3ef3d4f02f2d9d5a398e3caf9388be3eac3833564736f6c63430005100032",
  "linkReferences": {},
  "deployedLinkReferences": {}
}