{
  "_format": "hh-sol-artifact-1",
  "contractName": "Package",
  "sourceName": "@openzeppelin/upgrades/contracts/application/Package.sol",
  "abi": [
    {
      "anonymous": false,
      "inputs": [
        {
          "indexed": true,
          "internalType": "address",
          "name": "previousOwner",
          "type": "address"
        },
        {
          "indexed": true,
          "internalType": "address",
          "name": "newOwner",
          "type": "address"
        }
      ],
      "name": "OwnershipTransferred",
      "type": "event"
    },
    {
      "anonymous": false,
      "inputs": [
        {
          "indexed": false,
          "internalType": "uint64[3]",
          "name": "semanticVersion",
          "type": "uint64[3]"
        },
        {
          "indexed": false,
          "internalType": "address",
          "name": "contractAddress",
          "type": "address"
        },
        {
          "indexed": false,
          "internalType": "bytes",
          "name": "contentURI",
          "type": "bytes"
        }
      ],
      "name": "VersionAdded",
      "type": "event"
    },
    {
      "constant": false,
      "inputs": [
        {
          "internalType": "uint64[3]",
          "name": "semanticVersion",
          "type": "uint64[3]"
        },
        {
          "internalType": "address",
          "name": "contractAddress",
          "type": "address"
        },
        {
          "internalType": "bytes",
          "name": "contentURI",
          "type": "bytes"
        }
      ],
      "name": "addVersion",
      "outputs": [],
      "payable": false,
      "stateMutability": "nonpayable",
      "type": "function"
    },
    {
      "constant": true,
      "inputs": [
        {
          "internalType": "uint64[3]",
          "name": "semanticVersion",
          "type": "uint64[3]"
        }
      ],
      "name": "getContract",
      "outputs": [
        {
          "internalType": "address",
          "name": "contractAddress",
          "type": "address"
        }
      ],
      "payable": false,
      "stateMutability": "view",
      "type": "function"
    },
    {
      "constant": true,
      "inputs": [],
      "name": "getLatest",
      "outputs": [
        {
          "internalType": "uint64[3]",
          "name": "semanticVersion",
          "type": "uint64[3]"
        },
        {
          "internalType": "address",
          "name": "contractAddress",
          "type": "address"
        },
        {
          "internalType": "bytes",
          "name": "contentURI",
          "type": "bytes"
        }
      ],
      "payable": false,
      "stateMutability": "view",
      "type": "function"
    },
    {
      "constant": true,
      "inputs": [
        {
          "internalType": "uint64",
          "name": "major",
          "type": "uint64"
        }
      ],
      "name": "getLatestByMajor",
      "outputs": [
        {
          "internalType": "uint64[3]",
          "name": "semanticVersion",
          "type": "uint64[3]"
        },
        {
          "internalType": "address",
          "name": "contractAddress",
          "type": "address"
        },
        {
          "internalType": "bytes",
          "name": "contentURI",
          "type": "bytes"
        }
      ],
      "payable": false,
      "stateMutability": "view",
      "type": "function"
    },
    {
      "constant": true,
      "inputs": [
        {
          "internalType": "uint64[3]",
          "name": "semanticVersion",
          "type": "uint64[3]"
        }
      ],
      "name": "getVersion",
      "outputs": [
        {
          "internalType": "address",
          "name": "contractAddress",
          "type": "address"
        },
        {
          "internalType": "bytes",
          "name": "contentURI",
          "type": "bytes"
        }
      ],
      "payable": false,
      "stateMutability": "view",
      "type": "function"
    },
    {
      "constant": true,
      "inputs": [
        {
          "internalType": "uint64[3]",
          "name": "semanticVersion",
          "type": "uint64[3]"
        }
      ],
      "name": "hasVersion",
      "outputs": [
        {
          "internalType": "bool",
          "name": "",
          "type": "bool"
        }
      ],
      "payable": false,
      "stateMutability": "view",
      "type": "function"
    },
    {
      "constant": true,
      "inputs": [],
      "name": "isOwner",
      "outputs": [
        {
          "internalType": "bool",
          "name": "",
          "type": "bool"
        }
      ],
      "payable": false,
      "stateMutability": "view",
      "type": "function"
    },
    {
      "constant": true,
      "inputs": [],
      "name": "owner",
      "outputs": [
        {
          "internalType": "address",
          "name": "",
          "type": "address"
        }
      ],
      "payable": false,
      "stateMutability": "view",
      "type": "function"
    },
    {
      "constant": false,
      "inputs": [],
      "name": "renounceOwnership",
      "outputs": [],
      "payable": false,
      "stateMutability": "nonpayable",
      "type": "function"
    },
    {
      "constant": false,
      "inputs": [
        {
          "internalType": "address",
          "name": "newOwner",
          "type": "address"
        }
      ],
      "name": "transferOwnership",
      "outputs": [],
      "payable": false,
      "stateMutability": "nonpayable",
      "type": "function"
    }
  ],
  "bytecode": "0x6080604052336000806101000a81548173ffffffffffffffffffffffffffffffffffffffff021916908373ffffffffffffffffffffffffffffffffffffffff1602179055506000809054906101000a900473ffffffffffffffffffffffffffffffffffffffff1673ffffffffffffffffffffffffffffffffffffffff16600073ffffffffffffffffffffffffffffffffffffffff167f8be0079c531659141344cd1fd0a4f28419497f9722a3daafe3b4186f6b6457e060405160405180910390a36115ae806100cf6000396000f3fe608060405234801561001057600080fd5b506004361061009e5760003560e01c8063c356d5b011610066578063c356d5b01461023b578063c36af4601461034e578063d6ef25d514610433578063e30329e91461054f578063f2fde38b146106605761009e565b80631df40eaa146100a357806335ce401614610148578063715018a6146101c55780638da5cb5b146101cf5780638f32d59b14610219575b600080fd5b610106600480360360608110156100b957600080fd5b8101908080606001906003806020026040519081016040528092919082600360200280828437600081840152601f19601f82011690508083019250505050505091929192905050506106a4565b604051808273ffffffffffffffffffffffffffffffffffffffff1673ffffffffffffffffffffffffffffffffffffffff16815260200191505060405180910390f35b6101ab6004803603606081101561015e57600080fd5b8101908080606001906003806020026040519081016040528092919082600360200280828437600081840152601f19601f82011690508083019250505050505091929192905050506106f1565b604051808215151515815260200191505060405180910390f35b6101cd61076e565b005b6101d761083e565b604051808273ffffffffffffffffffffffffffffffffffffffff1673ffffffffffffffffffffffffffffffffffffffff16815260200191505060405180910390f35b610221610867565b604051808215151515815260200191505060405180910390f35b6102716004803603602081101561025157600080fd5b81019080803567ffffffffffffffff1690602001909291905050506108be565b6040518084600360200280838360005b8381101561029c578082015181840152602081019050610281565b505050509050018373ffffffffffffffffffffffffffffffffffffffff1673ffffffffffffffffffffffffffffffffffffffff16815260200180602001828103825283818151815260200191508051906020019080838360005b838110156103115780820151818401526020810190506102f6565b50505050905090810190601f16801561033e5780820380516001836020036101000a031916815260200191505b5094505050505060405180910390f35b610356610a52565b6040518084600360200280838360005b83811015610381578082015181840152602081019050610366565b505050509050018373ffffffffffffffffffffffffffffffffffffffff1673ffffffffffffffffffffffffffffffffffffffff16815260200180602001828103825283818151815260200191508051906020019080838360005b838110156103f65780820151818401526020810190506103db565b50505050905090810190601f1680156104235780820380516001836020036101000a031916815260200191505b5094505050505060405180910390f35b61054d600480360360a081101561044957600080fd5b8101908080606001906003806020026040519081016040528092919082600360200280828437600081840152601f19601f8201169050808301925050505050509192919290803573ffffffffffffffffffffffffffffffffffffffff169060200190929190803590602001906401000000008111156104c757600080fd5b8201836020820111156104d957600080fd5b803590602001918460018302840111640100000000831117156104fb57600080fd5b91908080601f016020809104026020016040519081016040528093929190818152602001838380828437600081840152601f19601f820116905080830192505050505050509192919290505050610a88565b005b6105b26004803603606081101561056557600080fd5b8101908080606001906003806020026040519081016040528092919082600360200280828437600081840152601f19601f820116905080830192505050505050919291929050505061106b565b604051808373ffffffffffffffffffffffffffffffffffffffff1673ffffffffffffffffffffffffffffffffffffffff16815260200180602001828103825283818151815260200191508051906020019080838360005b83811015610624578082015181840152602081019050610609565b50505050905090810190601f1680156106515780820380516001836020036101000a031916815260200191505b50935050505060405180910390f35b6106a26004803603602081101561067657600080fd5b81019080803573ffffffffffffffffffffffffffffffffffffffff16906020019092919050505061115d565b005b600080600160006106b48561117a565b815260200190815260200160002090508060010160009054906101000a900473ffffffffffffffffffffffffffffffffffffffff16915050919050565b600080600160006107018561117a565b81526020019081526020016000209050600073ffffffffffffffffffffffffffffffffffffffff168160010160009054906101000a900473ffffffffffffffffffffffffffffffffffffffff1673ffffffffffffffffffffffffffffffffffffffff161415915050919050565b610776610867565b61077f57600080fd5b600073ffffffffffffffffffffffffffffffffffffffff166000809054906101000a900473ffffffffffffffffffffffffffffffffffffffff1673ffffffffffffffffffffffffffffffffffffffff167f8be0079c531659141344cd1fd0a4f28419497f9722a3daafe3b4186f6b6457e060405160405180910390a360008060006101000a81548173ffffffffffffffffffffffffffffffffffffffff021916908373ffffffffffffffffffffffffffffffffffffffff160217905550565b60008060009054906101000a900473ffffffffffffffffffffffffffffffffffffffff16905090565b60008060009054906101000a900473ffffffffffffffffffffffffffffffffffffffff1673ffffffffffffffffffffffffffffffffffffffff163373ffffffffffffffffffffffffffffffffffffffff1614905090565b6108c661139f565b60006060600060016000600260008867ffffffffffffffff1667ffffffffffffffff1681526020019081526020016000205481526020019081526020016000209050806000018160010160009054906101000a900473ffffffffffffffffffffffffffffffffffffffff1682600201826003806020026040519081016040528092919082600380156109a1576020028201916000905b82829054906101000a900467ffffffffffffffff1667ffffffffffffffff168152602001906008019060208260070104928301926001038202915080841161095c5790505b50505050509250808054600181600116156101000203166002900480601f016020809104026020016040519081016040528092919081815260200182805460018160011615610100020316600290048015610a3d5780601f10610a1257610100808354040283529160200191610a3d565b820191906000526020600020905b815481529060010190602001808311610a2057829003601f168201915b50505050509050935093509350509193909250565b610a5a61139f565b60006060610a7d600360009054906101000a900467ffffffffffffffff166108be565b925092509250909192565b610a90610867565b610a9957600080fd5b600073ffffffffffffffffffffffffffffffffffffffff168273ffffffffffffffffffffffffffffffffffffffff161415610b3c576040517f08c379a000000000000000000000000000000000000000000000000000000000815260040180806020018281038252601c8152602001807f436f6e747261637420616464726573732069732072657175697265640000000081525060200191505060405180910390fd5b610b45836106f1565b15610b9b576040517f08c379a000000000000000000000000000000000000000000000000000000000815260040180806020018281038252602e81526020018061154c602e913960400191505060405180910390fd5b610ba483611232565b15610c17576040517f08c379a00000000000000000000000000000000000000000000000000000000081526004018080602001828103825260188152602001807f56657273696f6e206d757374206265206e6f6e207a65726f000000000000000081525060200191505060405180910390fd5b6000610c228461117a565b905060405180606001604052808581526020018473ffffffffffffffffffffffffffffffffffffffff1681526020018381525060016000838152602001908152602001600020600082015181600001906003610c7f9291906113c1565b5060208201518160010160006101000a81548173ffffffffffffffffffffffffffffffffffffffff021916908373ffffffffffffffffffffffffffffffffffffffff1602179055506040820151816002019080519060200190610ce392919061146f565b50905050600084600060038110610cf657fe5b60200201519050600360009054906101000a900467ffffffffffffffff1667ffffffffffffffff168167ffffffffffffffff161115610d6a5784600060038110610d3c57fe5b6020020151600360006101000a81548167ffffffffffffffff021916908367ffffffffffffffff1602179055505b600085600160038110610d7957fe5b60200201519050600086600260038110610d8f57fe5b60200201519050600060016000600260008767ffffffffffffffff1667ffffffffffffffff1681526020019081526020016000205481526020019081526020016000206000019050610e5081600380602002604051908101604052809291908260038015610e46576020028201916000905b82829054906101000a900467ffffffffffffffff1667ffffffffffffffff1681526020019060080190602082600701049283019260010382029150808411610e015790505b5050505050611232565b80610e9a575080600160038110610e6357fe5b600491828204019190066008029054906101000a900467ffffffffffffffff1667ffffffffffffffff168367ffffffffffffffff16115b80610f2f575080600160038110610ead57fe5b600491828204019190066008029054906101000a900467ffffffffffffffff1667ffffffffffffffff168367ffffffffffffffff16148015610f2e575080600260038110610ef757fe5b600491828204019190066008029054906101000a900467ffffffffffffffff1667ffffffffffffffff168267ffffffffffffffff16115b5b15610f615784600260008667ffffffffffffffff1667ffffffffffffffff168152602001908152602001600020819055505b7fc5b9b96b4952fc60f5a916010c882de0324dd4fdfaa999f9ad6947f55d8427628888886040518084600360200280838360005b83811015610fb0578082015181840152602081019050610f95565b505050509050018373ffffffffffffffffffffffffffffffffffffffff1673ffffffffffffffffffffffffffffffffffffffff16815260200180602001828103825283818151815260200191508051906020019080838360005b8381101561102557808201518184015260208101905061100a565b50505050905090810190601f1680156110525780820380516001836020036101000a031916815260200191505b5094505050505060405180910390a15050505050505050565b6000606060006001600061107e8661117a565b815260200190815260200160002090508060010160009054906101000a900473ffffffffffffffffffffffffffffffffffffffff1681600201808054600181600116156101000203166002900480601f01602080910402602001604051908101604052809291908181526020018280546001816001161561010002031660029004801561114c5780601f106111215761010080835404028352916020019161114c565b820191906000526020600020905b81548152906001019060200180831161112f57829003601f168201915b505050505090509250925050915091565b611165610867565b61116e57600080fd5b611177816112a7565b50565b60008160006003811061118957fe5b60200201518260016003811061119b57fe5b6020020151836002600381106111ad57fe5b6020020151604051602001808467ffffffffffffffff1667ffffffffffffffff1660c01b81526008018367ffffffffffffffff1667ffffffffffffffff1660c01b81526008018267ffffffffffffffff1667ffffffffffffffff1660c01b81526008019350505050604051602081830303815290604052805190602001209050919050565b6000808260006003811061124257fe5b602002015167ffffffffffffffff16148015611279575060008260016003811061126857fe5b602002015167ffffffffffffffff16145b80156112a0575060008260026003811061128f57fe5b602002015167ffffffffffffffff16145b9050919050565b600073ffffffffffffffffffffffffffffffffffffffff168173ffffffffffffffffffffffffffffffffffffffff1614156112e157600080fd5b8073ffffffffffffffffffffffffffffffffffffffff166000809054906101000a900473ffffffffffffffffffffffffffffffffffffffff1673ffffffffffffffffffffffffffffffffffffffff167f8be0079c531659141344cd1fd0a4f28419497f9722a3daafe3b4186f6b6457e060405160405180910390a3806000806101000a81548173ffffffffffffffffffffffffffffffffffffffff021916908373ffffffffffffffffffffffffffffffffffffffff16021790555050565b6040518060600160405280600390602082028038833980820191505090505090565b826003800160049004810192821561145e5791602002820160005b8382111561142857835183826101000a81548167ffffffffffffffff021916908367ffffffffffffffff16021790555092602001926008016020816007010492830192600103026113dc565b801561145c5782816101000a81549067ffffffffffffffff0219169055600801602081600701049283019260010302611428565b505b50905061146b91906114ef565b5090565b828054600181600116156101000203166002900490600052602060002090601f016020900481019282601f106114b057805160ff19168380011785556114de565b828001600101855582156114de579182015b828111156114dd5782518255916020019190600101906114c2565b5b5090506114eb9190611526565b5090565b61152391905b8082111561151f57600081816101000a81549067ffffffffffffffff0219169055506001016114f5565b5090565b90565b61154891905b8082111561154457600081600090555060010161152c565b5090565b9056fe476976656e2076657273696f6e20697320616c7265616479207265676973746572656420696e207061636b616765a265627a7a72315820d78eb3b1af3fef955dab6fa5dc7814b7d35f2400da4d8e3475e8272f8a4a53fe64736f6c63430005100032",
  "linkReferences": {},
  "deployedLinkReferences": {}
}